:020000040000FA
:10000000010AFD093000FE09310074006400080A8D
:10001000080C0600D00C020066006607100A110AE0
:100020000D0A260446047400240A010CA6010D0CD6
:100030003300FB0C3200F2021B0AF3021B0A200AF7
:10004000010C3F001F02F401140C94000307290A5D
:100050002A0A150A410C3300EE0C3200F2022E0A75
:10006000F3022E0A0000060446047400460A020C3D
:10007000A6010D0C3300FB0C3200F2023D0AF30224
:100080003D0A420A010C3F001F02F401140C9400C7
:1000900003074B0A4C0A370A410C3300EE0C3200BE
:1000A000F202500AF302500A00002604060474000B
:1000B000680A040CA6010D0C3300FB0C3200F2029E
:1000C0005F0AF3025F0A640A010C3F001F02F40199
:1000D000140C940003076D0A6E0A590A110A000AEB
:0401FA000A081408D3
:021FFE00FFFFE3
:00000001FF
